:020000040800F2
:1000000010050020E10100080D040008E9030008C4
:1000100009040008C30200083307000800000000BC
:10002000000000000000000000000000490100087E
:10003000C7020008000000008D010008DD0600086E
:10004000F7010008F7010008F7010008F7010008B0
:10005000F7010008F7010008F7010008F7010008A0
:10006000F7010008F7010008F7010008F701000890
:10007000F7010008F7010008F7010008F701000880
:10008000F7010008F7010008F7010008F701000870
:10009000F7010008F7010008F7010008F701000860
:1000A000F7010008F7010008F7010008F701000850
:1000B000F7010008F7010008F7010008F701000840
:1000C000F7010008F7010008F7010008F701000830
:1000D000F7010008F7010008F7010008F701000820
:1000E000F7010008F7010008F7010008F701000810
:1000F000F7010008F7010008F7010008F701000800
:10010000F7010008F7010008F7010008F7010008EF
:10011000F7010008F7010008F7010008F7010008DF
:10012000F7010008F7010008F7010008F7010008CF
:10013000DFF810D000F094F8004800473D0C0008AC
:10014000AFF3008010050020224B19680868B0E862
:10015000F00F80F30988BFF36F8F4FF0000080F33A
:1001600011884EF00D0E7047000000000648006830
:10017000006880F3088862B661B6BFF34F8FBFF3A3
:100180006F8F00DF00BF00BF08ED00E0EFF30980D4
:10019000BFF36F8F0F4B1A6820E9F00F106008B59E
:1001A0004FF0BF0080F31188BFF34F8FBFF36F8F05
:1001B00000F06EFD4FF0000080F31188BDE80840AC
:1001C00019680868B0E8F00F80F30988BFF36F8FF3
:1001D000704700BF04000020EFF305807047000067
:1001E00005480047FEE7FEE7FEE7FEE7FEE7FEE71D
:1001F000FEE7FEE7FEE7FEE7310100082DE9F05FCC
:100200000546002092469B46884606468146402485
:100210001BE0284641464746224600F042F8534636
:100220005A46C01A914110D311461846224600F092
:1002300029F82D1A67EB01084F46224601200021BC
:1002400000F020F817EB00094E41201EA4F1010434
:10025000DFDC484631462A464346BDE8F09F0000B1
:10026000064C074D06E0E06840F0010394E8070003
:1002700098471034AC42F6D3FFF75EFF7C140008B9
:100280009C140008202A04DB203A00FA02F1002026
:1002900070479140C2F1200320FA03F319439040C4
:1002A0007047202A04DB203A21FA02F0002170472F
:1002B00021FA02F3D040C2F12002914008431946CE
:1002C000704700BFFEE770472DE9F0410246002568
:1002D0000026002000230024002791F803C00CF022
:1002E0000F0591F803C00CF0100CBCF1000F03D007
:1002F00091F802C04CEA050591F800C0BCF1000F6E
:1003000031D0146800202BE04FF0010C0CFA00F300
:10031000B1F800C00CEA03069E4220D183004FF0E2
:100320000F0C0CFA03F7BC4305FA03FC4CEA040477
:1003300091F803C0BCF1280F06D14FF0010C0CFA64
:1003400000FCC2F814C00AE091F803C0BCF1480FE9
:1003500005D14FF0010C0CFA00FCC2F810C0401C93
:100360000828D1D31460B1F800C0BCF1FF0F34DD10
:10037000546800202EE000F1080C4FF0010808FA44
:100380000CF3B1F800C00CEA03069E4221D18300B1
:100390004FF00F0C0CFA03F7BC4305FA03FC4CEAD0
:1003A000040491F803C0BCF1280F05D100F1080C3A
:1003B00008FA0CF8C2F8148091F803C0BCF1480F99
:1003C00007D100F1080C4FF0010808FA0CF8C2F848
:1003D0001080401C0828CED35460BDE8F0810AB1DB
:1003E000016100E04161704702A000F0A5F900BF83
:1003F000FEE70000486172644661756C745F486195
:100400006E646C65720D0A0000BFFEE7704770B540
:1004100000240EE00021204600F0E5F8002504E06D
:10042000002000F03BF9681CC5B2802DF8DB601C91
:10043000C4B2082CEEDB70BD08B50121082000F025
:100440003DF914208DF8030003208DF802004FF4CD
:100450008070ADF8000069460A48FFF735FF4FF499
:100460000070ADF8000069460648FFF72DFF012235
:1004700011020448FFF7B3FF012251020148FFF7C0
:10048000AEFF08BD000C014070B50546002415E024
:100490008020204100EA05024FF400710E48FFF76A
:1004A0009EFF012211020C48FFF799FF00224FF432
:1004B00080710948FFF793FF601CC4B2082CE7DB8A
:1004C000012211020448FFF78AFF00224FF48071D5
:1004D0000148FFF784FF70BD000C014010B50122F8
:1004E00051020A48FFF77BFF012211020748FFF77C
:1004F00076FF00224FF400710448FFF770FF0022DE
:100500004FF480710148FFF76AFF10BD000C0140F5
:1005100010B500224FF400710648FFF760FF01227A
:1005200011020448FFF75BFF012251020148FFF767
:1005300056FF10BD000C014070B5002406E00025F8
:1005400000E06D1CB5F57A7FFBD3641CB4F57A7FAF
:10055000F5D3FFF771FFAE2000F090F8D52000F042
:100560008DF8802000F08AF8A82000F087F83F205E
:1005700000F084F8D32000F081F8002000F07EF82D
:10058000402000F07BF8A12000F078F8C82000F0AF
:1005900075F8DA2000F072F8122000F06FF8812070
:1005A00000F06CF8CF2000F069F8D92000F066F870
:1005B000F12000F063F8DB2000F060F8302000F05C
:1005C0005DF8A42000F05AF8A62000F057F88D201E
:1005D00000F054F8142000F051F8AF2000F04EF86D
:1005E000FFF715FF70BD70B505460C4645F0B0002D
:1005F00000F044F8102141EA141000F03FF804F034
:100600000F0000F03BF870BD2DE9F04105460E46A5
:100610001746721ED206110E6A1E5206100EFFF702
:10062000E2FF002409E0A7F12001134A02EB0111C7
:10063000085D00F033F8601CC4B2082CF3DB721EB6
:10064000D206110E6A1E012303EB4202D0B2FFF75D
:10065000CAFF00240BE0A7F12001074A02EB0112B8
:1006600004F10801505C00F019F8601CC4B2082CB9
:10067000F1DBBDE8F08100008C0E000810B50446E7
:10068000FFF72CFF7820FFF7FFFE0020FFF7FCFEAE
:100690002046FFF7F9FEFFF73BFF10BD10B50446FB
:1006A000FFF71CFF7820FFF7EFFE4020FFF7ECFE7E
:1006B0002046FFF7E9FEFFF72BFF10BD29B1064AE0
:1006C00092690243044B9A6104E0034A92698243AF
:1006D000014B9A61704700000010024010B500BF46
:1006E000BF2080F31188BFF34F8FBFF36F8F00BF20
:1006F00000F0FEFA18B14FF080500449086000BFC6
:10070000002080F3118800BF10BD000004ED00E060
:1007100002460020B1F5007F00D100BF13880B40D6
:100720000BB1012000E000207047C1F30802828075
:10073000704700BFFEE700000FB4054B10B503A9DA
:10074000044A029800F018F810BC5DF814FB000091
:10075000D10B00080000002002E008C8121F08C1E9
:10076000002AFAD170477047002001E001C1121F32
:10077000002AFBD1704700002DE9FF4F8DB00F46D6
:100780000546002606E025280BD0DDE90F1290472C
:100790006D1C761C28780028F5D111B03046BDE8D4
:1007A000F08F0024A246A1460122E94900E004435B
:1007B00015F8013F203B02FA03F00842F7D12878F0
:1007C0002A2810D06FF02F022878A0F130010929D3
:1007D00014D80AEB8A0102EB410144F0020400EB59
:1007E000010A6D1CF0E701CF5FEA000A03D544F46B
:1007F0000054CAF1000A44F002046D1C28782E2827
:1008000017D115F8010F44F004042A280ED06FF018
:100810002F022878A0F1300109290AD809EB8901B3
:1008200002EB410100EB01096D1CF2E757F8049B54
:100830006D1C28786C280FD006DC4C2817D068284F
:100840000DD06A2814D104E0742810D07A280FD172
:100850000DE044F400140AE044F4801401E044F490
:1008600040146978814202D104F580146D1C6D1C1E
:1008700028786E281ED00CDC632830D004DC0028D9
:100880008BD0582811D19FE0642867D069280CD1FB
:1008900064E073282DD004DC6F2872D0702804D156
:1008A00094E075286ED078286DD0DDE90F1290475E
:1008B000761C4BE1C4F30250022806D0032809D06D
:1008C000042801CF09D0066040E101CFF117C0E94B
:1008D00000613BE101CF068038E1067036E117F890
:1008E000040B8DF8000000208DF80100EB4601207C
:1008F00003E057F804BB4FF0FF3061074FF00001F1
:1009000002D40DE008F10101884649450FDA80451F
:10091000F8DB1BF808100029F4D108E008F1010108
:1009200088468142FADB1BF808100029F6D1DDE980
:100930000F23AAEB08008146214600F031F930442C
:1009400000EB080604E0DDE90F121BF8010B9047ED
:10095000B8F10108F7D221464846F2E00A21C4F373
:1009600002524FF0000B0891022A04D001CFC117A8
:10097000032A09D00AE0FF1D27F00707F7E8020164
:1009800008E02CE01EE01FE000B2C117042A01D1EC
:1009900040B2C117021E71F1000206DA0023D0EB4B
:1009A000030063EB01012D2202E0220504D52B2276
:1009B0008DF82420012203E0E20701D02022F7E78E
:1009C000904653E00A210BE0102109E010214FF07E
:1009D000000B44F004044FF00809089103E00821DB
:1009E0004FF0000B0891C4F30252022A04D001CF49
:1009F0000021032A06D006E0FF1D27F00707F7E8CD
:100A0000020103E080B2042A00D1C0B24FF0000816
:100A100022072BD52A78702A07D0DDF820C08CF069
:100A2000100C5CEA0B0C05D00EE040228DF824205F
:100A3000012208E050EA010306D030238DF824306B
:100A40008DF8252002229046089B83F0080353EA84
:100A50000B030BD150EA010201D1620706D5302207
:100A60008DF824204FF00108A9F101092A78582AAD
:100A700004D038A20B9208AA0A920BE03AA2F9E736
:100A80005B46089AFFF7BAFB0B9B9B5C0A9A521EC7
:100A90000A92137050EA0102F2D10A98ADEB0000FD
:100AA00000F1200B600702D524F4803401E04FF000
:100AB0000109D94502DDA9EB0B0000E0002000EBA5
:100AC0000B0141440890AAEB010AE00306D4DDE9DA
:100AD0000F232146504600F063F806444FF000090A
:100AE00008E009A911F80900DDE90F12904709F1A2
:100AF0000109761CC145F4DBE0030CD5DDE90F23C9
:100B00002146504600F04CF8064404E0DDE90F129F
:100B100030209047761C0899481E08900029F5DC83
:100B200008E00A980A990078491C0A91DDE90F1239
:100B30009047761CBBF10001ABF1010BF1DC2146C3
:100B40005046DDE90F2300F019F806446D1C21E63C
:100B50000928010030313233343536373839616293
:100B60006364656600000000303132333435363757
:100B70003839414243444546000000002DE9F04128
:100B8000044600251E461746880404D405E039466D
:100B90002020B0476D1C641EF9D52846BDE8F081C1
:100BA0002DE9F041044600251E469046C80301D5B4
:100BB000302700E02027880404D505E04146384668
:100BC000B0476D1C641EF9D52846BDE8F0810000D1
:100BD00070B504460D46E1B20548FFF7A6FD00BF1B
:100BE00080210348FFF794FD0028F9D0204670BD0E
:100BF0000038014038B5044601212068FFF75EFD4A
:100C0000002000902089ADF8000010208DF803002E
:100C100003208DF8020069466068FFF755FBE27A11
:100C200021896068FFF7DBFB38BD10B50446A27A66
:100C300021896068FFF7D3FB10BD0000FFF77CFC43
:100C40000648FFF7D7FF07E00448FFF7EEFF6122F1
:100C500001210846FFF7D8FCF6E70000800E0008E7
:100C600009480068006808B9012000E0002020B1B0
:100C70004FF0FF300549086005E003480068C06890
:100C80000068024908607047080000203400002016
:100C90001248006818B10120114908601DE00020C9
:100CA0000F4908600F480068B0FA80F0C0F11F01DA
:100CB00001EB81020C4B03EB8200426852684260F8
:100CC00000F108024368934202D1426852684260D0
:100CD0004268D268054B1A6000BF70474000002090
:100CE000280000201C0000204400002004000020F8
:100CF0002DE9F04100275748006800287ED156486A
:100D00000068451C544805608DB95448D0F80080EF
:100D100053480068514908605148C0F80080514864
:100D20000068401C4F490860FFF79AFF00BF4E481B
:100D30000068854276D300BF48480068006808B95B
:100D4000012000E0002020B14FF0FF30464908604C
:100D500067E042480068C068C4686668B54202D26D
:100D6000414806605DE06069D4E902128A60D4E916
:100D700002214A60211D42688A4201D1E168416036
:100D8000002262610168491E0160A06A98B1A06AF0
:100D9000D4E907128A60D4E907214A6004F11801F6
:100DA00042688A4201D1216A41600022A262016840
:100DB000491E016000BF94F82C10012088402B4987
:100DC0000968084329490860E16A01EB8101284A62
:100DD00002EB81014868A0608268E260211D8268A0
:100DE00051608160E16A01EB8101214A02EB8102DD
:100DF0006261E16A01EB81011D4A00E022E052F8E4
:100E00002110491CE26A02EB8202194B43F82210BE
:100E10001849E06A0968C96A88428DD301278BE7BF
:100E200000E000BF13480068C06A00EB8000104972
:100E300051F82000012800D901270F48006800B1AF
:100E4000012704E00D480068401C0C490860384642
:100E5000BDE8F081400000201800002008000020BC
:100E60000C0000202C000020340000201C0000207A
:100E7000440000200400002028000020240000205E
:100E800004000000000801402000000100000000F4
:100E9000000000000000000000000000000000F85A
:100EA00000000000000000333000000000100C06BD
:100EB000100C0600000000000000000040C0784058
:100EC000C0784000043F04043F040400007088FC24
:100ED00008300000001820FF211E0000F008F0007C
:100EE000E018000000211C031E211E0000F00888ED
:100EF000700000001E2123241927211010160E0057
:100F0000000000000000000000000000000000E001
:100F10001804020000000007182040000002041816
:100F2000E00000000040201807000000404080F072
:100F3000804040000202010F01020200000000F0A8
:100F4000000000000101011F01010100000000007C
:100F50000000000080B070000000000000000000F1
:100F6000000000000001010101010101000000007A
:100F70000000000000303000000000000000000011
:100F800080601804006018060100000000E01008EE
:100F90000810E000000F102020100F00001010F8C3
:100FA000000000000020203F202000000070080802
:100FB0000888700000302824222130000030088882
:100FC000884830000018202020110E000000C020AA
:100FD00010F8000000070424243F240000F80888CB
:100FE000880808000019212020110E0000E0108858
:100FF00088180000000F112020110E00003808088A
:10100000C83808000000003F000000000070880899
:1010100008887000001C222121221C0000E010081A
:101020000810E0000000312222110F00000000C073
:10103000C000000000000030300000000000008010
:101040000000000000008060000000000000804000
:101050002010080000010204081020004040404019
:10106000404040000404040404040400000810206C
:1010700040800000002010080402010000704808B1
:101080000808F0000000003036010000C030C82819
:10109000E810E0000718272423140B000000C038D4
:1010A000E0000000203C23020227382008F888884E
:1010B00088700000203F202020110E00C03008085A
:1010C00008083800071820202010080008F8080831
:1010D0000810E000203F202020100F0008F888882A
:1010E000E8081000203F20202320180008F88888F6
:1010F000E8081000203F200003000000C03008086E
:101100000838000007182020221E020008F80800F6
:101110000008F808203F210101213F20000808F8BD
:10112000080800000020203F2020000000000808E0
:10113000F8080800C08080807F00000008F888C0A0
:1011400028180800203F20012638200008F8080051
:1011500000000000203F20202020300008F8F80088
:10116000F8F80800203F003F003F200008F830C09A
:101170000008F808203F200007183F00E01008088A
:101180000810E0000F10202020100F0008F80808B9
:101190000808F000203F210101010000E0100808CC
:1011A0000810E0000F18242438504F0008F88888F1
:1011B00088887000203F2000030C302000708808D1
:1011C000080838000038202121221C00180808F8DF
:1011D000080818000000203F2000000008F8080060
:1011E0000008F808001F202020201F000878880031
:1011F00000C83808000007380E010000F80800F8A1
:101200000008F800033C0700073C0300081868804A
:101210008068180820302C03032C30200838C800C0
:10122000C83808000000203F20000000100808080F
:10123000C83808002038262120201800000000FEB1
:10124000020202000000007F40404000000C30C05D
:1012500000000000000000010638C0000002020289
:10126000FE000000004040407F000000000004023B
:101270000202040000000000000000000000000066
:101280000000000080808080808080800002020456
:10129000000000000000000000000000000080804E
:1012A000808000000019242222223F2008F80080BC
:1012B00080000000003F112020110E00000000807F
:1012C00080800000000E112020201100000000800E
:1012D0008088F800000E112020103F200000808040
:1012E00080800000001F222222221300008080F054
:1012F000888888180020203F20200000000080807F
:1013000080808000006B94949493600008F80080C3
:1013100080800000203F210000203F20008098981E
:10132000000000000020203F20200000000000807E
:101330009898000000C08080807F000008F80000BE
:1013400080808000203F24022D302000000808F813
:10135000000000000020203F2020000080808080CE
:1013600080808000203F20003F20003F8080008060
:1013700080800000203F210000203F20000080806E
:1013800080800000001F202020201F00808000801F
:101390008000000080FFA12020110E0000000080CE
:1013A00080808000000E112020A0FF8080808000BF
:1013B0008080800020203F212000010000008080EC
:1013C000808080000033242424241900008080E0E1
:1013D000808000000000001F2020000080800000AE
:1013E00000808000001F202020103F20808080008F
:1013F0000080808000010E3008060100808000809F
:10140000008080800F300C030C300F0000808000C3
:10141000808080000020312E0E31200080808000EE
:101420000080808080818E7018060100008080809E
:10143000808080000021302C22213000000000003C
:10144000807C020200000000003F404000000000DD
:10145000FF00000000000000FF0000000002027C0E
:10146000800000000040403F000000000006010135
:101470000202040400000000000000009C140008A8
:10148000000000204400000058070008E014000895
:1014900044000020CC0400006807000800000000A1
:1014A000000000000000000000000000000000003C
:1014B000000000000000000000000000000000002C
:1014C000000000000000000000000000000000001C
:1014D0000000000000000000040000000000000008
:0400000508000131BD
:00000001FF
